:020000040800F2
:10000000D014002039020008955100084F0A00085A
:100010009151000841080008875A000800000000BC
:10002000000000000000000000000000D1530008A4
:10003000450800080000000025520008E9540008A7
:10004000530200085302000853020008530200083C
:10005000530200085302000853020008530200082C
:10006000530200085302000853020008530200081C
:10007000530200085302000853020008530200080C
:1000800053020008530200085302000853020008FC
:1000900053020008530200085302000853020008EC
:1000A00053020008530200085302000853020008DC
:1000B0005302000855550008530200085302000877
:1000C00053020008530200085302000853020008BC
:1000D00053020008A956000831570008A557000828
:1000E000530200085302000853020008530200089C
:1000F000530200085302000853020008530200088C
:10010000530200085302000853020008530200087B
:10011000530200085302000853020008530200086B
:10012000530200085302000853020008530200085B
:10013000530200085302000853020008530200084B
:10014000530200085302000853020008530200083B
:10015000530200085302000853020008530200082B
:10016000530200085302000853020008530200081B
:10017000530200085302000853020008530200080B
:10018000530200085302000800F002F800F044F89F
:100190000AA090E8000C82448344AAF10107DA45E2
:1001A00001D100F039F8AFF2090EBAE80F0013F0F0
:1001B000010F18BFFB1A43F001031847A094000079
:1001C000C0940000103A24BF78C878C1FAD852070A
:1001D00024BF30C830C144BF04680C6070470000C1
:1001E0000023002400250026103A28BF78C1FBD840
:1001F000520728BF30C148BF0B607047642900F028
:100200007180782900F0AA80002070471FB507F0A0
:1002100023FE1FBD10B510BD00F0E4FA1146FFF734
:10022000F5FF07F0FBF900F002FB03B4FFF7F2FF64
:1002300003BC05F031FC000009488047094800472D
:10024000FEE7FEE7FEE7FEE7FEE7FEE7FEE7FEE786
:10025000FEE7FEE704480549054A064B70470000E3
:10026000ED54000889010008D0020020D0140020BD
:10027000D0040020D0040020704700000FB40449CF
:1002800010B503AA029800F053FA10BC5DF814FBF5
:100290000C00002070B5044685690068C10601D5D0
:1002A000302600E02026C00707D070BDD4E9012128
:1002B00030469047206A401C20626D1EF6D570BD06
:1002C00070B5044685690078C00707D170BDD4E9D0
:1002D000012120209047206A401C20626D1EF6D527
:1002E00070BD00002DE9F041064600241068752914
:1002F000314616A510D0AFF30080002802DA404244
:1003000013A507E031688A0701D512A502E0490765
:1003100004D511A5012401E0AFF3008000210A22D9
:1003200006F1240709E0B0FBF2FCB0FBF2F302FB9C
:100330001C00303078541846491C0028F3D123465D
:100340002A463046BDE8F04100F099B900000000AF
:100350002D0000002B0000002000000070B50446B6
:100360000D4621461068AFF300802188090502D5AB
:100370000F4A7A4402E00E4A7A440E32002104F118
:10038000240305E000F00F060009965D5E54491C49
:100390000028F7D120780023000704D5702D02D063
:1003A00009B1022311322046BDE8704000F067B960
:1003B000AC9200002DE9F05F894604464FF0000A38
:1003C000DFF824B1FB44C0F820A02046E16888474C
:1003D00000287DD0252806D0D4E901219047206A45
:1003E000401C2062F1E700255F462046E16888470F
:1003F0002028064607DB312E05D2B81910F8200C4C
:1004000008B10543F1E7A80701D525F00405C4F8B4
:100410001CA00027C4F818A02A2E09D0304605F0E9
:1004200034FB38B304EB8708303EC8F8186019E095
:1004300059F8041B204604EB87029161E168884764
:10044000012F064618D1E069002820DA25F02005A2
:100450001DE0D8F8180000EB800006EB40003038B3
:10046000C8F818002046E1688847064605F00DFBED
:100470000028EED1012F0AD02E2E08D12046E168A7
:1004800088477F1C0646022F45F02005C4DBA06983
:10049000002803DA404245F00105A061E80701D0D9
:1004A00025F01005A6B1A6F14100192802D8203682
:1004B00045F400654A463146204625604D46FFF723
:1004C0009DFE60B1012807D0ED1D25F0070000E07A
:1004D00007E000F1080978E705F1040975E73046FF
:1004E0007AE7206ABDE8F09F8292000040EA0103AB
:1004F00010B59B070FD1042A0DD310C808C9121FCD
:100500009C42F8D020BA19BA884201D9012010BD06
:100510004FF0FF3010BD1AB1D30703D0521C07E0D3
:10052000002010BD10F8013B11F8014B1B1B07D137
:1005300010F8013B11F8014B1B1B01D1921EF1D1A8
:10054000184610BD032A40F2308010F0030C00F072
:10055000158011F8013BBCF1020F624498BF11F8FD
:1005600001CB00F8013B38BF11F8013BA2F10402B6
:1005700098BF00F801CB38BF00F8013B11F003032E
:1005800000F02580083AC0F0088051F8043B083A92
:1005900051F804CBA0E80810F5E7121D5CBF51F834
:1005A000043B40F8043BAFF30080D20724BF11F8AE
:1005B000013B11F801CB48BF11F8012B24BF00F813
:1005C000013B00F801CB48BF00F8012B704710B584
:1005D000203AC0F00B80B1E81850203AA0E818503B
:1005E000B1E81850A0E81850BFF4F5AF5FEA027CFC
:1005F00024BFB1E81850A0E8185044BF18C918C06B
:10060000BDE810405FEA827C24BF51F8043B40F80B
:10061000043B08BF7047D20728BF31F8023B48BFF0
:1006200011F8012B28BF20F8023B48BF00F8012B2E
:1006300070474FF000020429C0F0128010F0030C44
:1006400000F08A80CCF1040CBCF1020F18BF00F856
:10065000012BA8BF20F8022BA1EB0C0100F07CB805
:100660005FEAC17C24BF00F8012B00F8012B48BFD2
:1006700000F8012B704770477047704770472DE9AD
:10068000F0470D4699469246044600F12408016859
:10069000880604D5E06921F01001216000E0012006
:1006A000A84201DD471B00E00027A1697A1902EB8F
:1006B0000900081AA0612078C00602D42046FFF77E
:1006C000E9FD002608E0D4E901211AF80600904768
:1006D000206A401C761C20624E45F4DB2078C00660
:1006E0000AD52046FFF7D6FD06E0D4E901213020E7
:1006F0009047206A401C2062381EA7F10107F4DCF5
:1007000007E0D4E9012118F805009047206A401C51
:100710002062281EA5F10105F3DC2046FFF7D0FD7D
:100720002078000602D50220BDE8F0870120FBE713
:10073000074B70B50D467B4400F039F80446284657
:1007400000F048F810B14FF0FF3070BD204670BD8A
:10075000A75400004FF0000200B513469446964699
:10076000203922BFA0E80C50A0E80C50B1F12001C4
:10077000BFF4F7AF090728BFA0E80C5048BF0CC072
:100780005DF804EB890028BF40F8042B08BF7047D0
:1007900048BF20F8022B11F0804F18BF00F8012B42
:1007A0007047000001694A1C02610878704700B573
:1007B0008FB0CDE901310021059105497944CDE99A
:1007C000031011466846FFF7F5FD0FB000BD0000AD
:1007D000E5FFFFFF007B00F0800070470048704796
:1007E000700200207546FFF7F9FFAE460500694626
:1007F000534620F00700854618B020B5FFF72AFDC4
:10080000BDE820404FF000064FF000074FF0000811
:100810004FF0000B21F00701AC46ACE8C009ACE892
:10082000C009ACE8C009ACE8C0098D46704710B5F6
:100830000446AFF300802046BDE81040FFF7F5BC4A
:1008400000BFFEE77047000051B18200A2F1C04234
:10085000126842F001038200A2F1C042136009E075
:100860008200A2F1C0421268034B1A408300A3F138
:10087000C0431A6070470000FEFF0F00D0E901126C
:100880001143C268114302691143426911438269ED
:100890001143C2691143026A1143426A1143826AD9
:1008A0001143C26A1143026B114302689200A2F124
:1008B000C0421160816808290BD101688900A1F14B
:1008C000C041096841F0400201688900A1F1C041BE
:1008D0000A60416B0968426B526841EA0211426B3F
:1008E000926841EA0221426B928941EA0241426BDD
:1008F000128A41EA0251426B127D41EA0261426B67
:10090000926911430268521C9200A2F1C042116028
:10091000C16AB1F5804F1BD1816B0968826B526847
:1009200041EA0211826B926841EA0221826B128ACB
:1009300041EA0251826B127D41EA0261826B926947
:10094000114302689200A2F1C042C2F8041107E00C
:100950006FF0704201688900A1F1C041C1F8042123
:100960007047F0B50A4600210023002400BF3DE097
:10097000012505FA01F3156805EA03049C4234D108
:1009800005684F000326BE40B543056015794E004B
:10099000B5400668354305601579012D02D01579FB
:1009A000022D16D185684F000326BE40B5438560F1
:1009B00055794E00B5408668354385604568012607
:1009C0008E40B5434560456896798E40B6B2354352
:1009D0004560C5684F000326BE40B543C560D57964
:1009E0004E00B540C6683543C560491C1029BFD3C9
:1009F000F0BDF0B5002300244D07ED0E02FA05F31B
:100A0000CE1000F1200555F826504E07F70E0F26A0
:100A1000BE40B543CF1000F1200646F82750CE1057
:100A200000F1200555F8265045EA0304CE1000F1E8
:100A3000200545F82640F0BD0246002013690B4012
:100A40000BB1012000E0002070470183704700BF18
:100A5000FEE7000010B5044614B101202C490870CF
:100A60002B480078002837D010212A48FFF7E4FFF0
:100A700078B108212748FFF7DFFF50B1042125484E
:100A8000FFF7DAFF28B101212348FFF7D5FF01283E
:100A900022D10A2005F022F800201D4908701021FB
:100AA0001C48FFF7C9FF08B9012010BD08211948EB
:100AB000FFF7C2FF08B90220F7E704211548FFF746
:100AC000BBFF08B90320F0E701211348FFF7B4FF8B
:100AD00001281BD10420E8E710210E48FFF7ACFFE6
:100AE000012813D108210B48FFF7A6FF01280DD1DB
:100AF00004210848FFF7A0FF012807D1012106487B
:100B0000FFF79AFF10B90120014908700020CCE7D7
:100B100000000020001002400000024070B50446B2
:100B2000002617480588408845431548808846F6C2
:100B30000401884216D112488079012812D1002080
:100B40000F4988712A2048812B208881002108467E
:100B500004F03AF801200A4988712B2048812A20A4
:100B6000888103E00021084604F02EF804F02AFAF8
:100B7000002602E003480480761CAE42FAD370BD22
:100B80004E0000208000006C10B50446002C66D199
:100B90006C498871F02008804FF4A07048800846A6
:100BA000808849F2413188420BD06648808846F6F9
:100BB0000401884205D06348808845F2103188429C
:100BC0001AD12C205F4908812A2048812B20888156
:100BD0000846808846F60401884205D05948808836
:100BE00045F21031884206D14FF4A0705549088073
:100BF0004FF4F0704880A1E05248808845F21051CF
:100C0000884210D14FF430504E4908814FF428509B
:100C100048814FF42C5088814FF4F07008804FF4D5
:100C2000487048808AE04748808841F663118842CE
:100C30000DD12C20434908812B2048812A2088810E
:100C40004FF4F07008804FF44870488076E022201E
:100C50003C49088120204881212088816EE00120C4
:100C6000384988714FF4A0700880F0204880084609
:100C7000808849F24131884205D03248808845F267
:100C80001031884207D12C202E4908812A20488122
:100C90002B2088813FE02B48808846F6040188425B
:100CA00007D12C20274908812B2048812A208881C0
:100CB00031E02448808845F21051884210D14FF429
:100CC0003050204908814FF4285048814FF42C506F
:100CD00088814FF4487008804FF4F07048801AE023
:100CE0001848808841F6631188420DD12C2015499F
:100CF00008812A2048812B2088814FF44870088081
:100D00004FF4F070488006E022200E49088121202F
:100D10004881202088810B48808846F6040188425B
:100D200005D00848808845F21031884206D14FF43A
:100D3000F070044908804FF4A0704880002003F050
:100D4000CDFD10BD4E00002070B504460D46164680
:100D50005B48808849F24131884205D058488088F4
:100D600045F21031884214D15549488904F01EF9E2
:100D7000201204F00FF9E0B204F00CF95049888910
:100D800004F014F9281204F005F9E8B204F002F9AD
:100D90008CE04B48808845F21051884220D1484968
:100DA000488904F003F9201204F0F4F84449498911
:100DB000491C88B204F0FAF8E0B204F0EBF84049BC
:100DC000888904F0F3F8281204F0E4F83C49898992
:100DD000491C88B204F0EAF8E8B204F0DBF865E0F8
:100DE0003748808841F66311884228D13448807999
:100DF00020B933480088401E001B84B2304948891E
:100E000004F0D4F8201204F0C5F8E0B204F0C2F8FF
:100E1000201204F0BFF8E0B204F0BCF82849888939
:100E200004F0C4F8281204F0B5F8E8B204F0B2F8FF
:100E3000281204F0AFF8E8B204F0ACF836E020482D
:100E4000808846F6040188421DD11D48807901281A
:100E500004D11B480088401E001B84B218494889F1
:100E600004F0A4F8201204F095F8E0B204F092F82F
:100E70001349888904F09AF8281204F08BF8E8B234
:100E800004F088F812E00E488079012804D10C485B
:100E90000088401E001B84B209494889214604F09D
:100EA0009BF807498889294604F096F80448008988
:100EB000044908804FF0D840A0F8806070BD000061
:100EC0004E0000207E00006C00B5A1B000202090F4
:100ED00001217A2004F0A8F90121084604F0B4F9B0
:100EE0004FF400401E9001208DF87C0000208DF80A
:100EF0007E0002208DF87D0001208DF87F001EA964
:100F0000FE48FFF72EFD4CF233701E9002208DF844
:100F10007C0000208DF87E0003208DF87D000120EC
:100F20008DF87F001EA9F648FFF71BFD4FF6807075
:100F30001E9002208DF87C0000208DF87E0003209A
:100F40008DF87D0001208DF87F001EA9ED48FFF788
:100F500008FD4FF480501E9002208DF87C00002088
:100F60008DF87E0003208DF87D0001208DF87F0034
:100F70001EA9E548FFF7F5FC4FF480501E900220B3
:100F80008DF87C0000208DF87E0003208DF87D0018
:100F900001208DF87F001EA9DC48FFF7E2FC0C223F
:100FA0000021D748FFF725FD0C220121D448FFF787
:100FB00020FD0C220421D248FFF71BFD0C22052145
:100FC000CF48FFF716FD0C220821CD48FFF711FD91
:100FD0000C220921CA48FFF70CFD0C220A21C8483F
:100FE000FFF707FD0C220E21C548FFF702FD0C227A
:100FF0000F21C348FFF7FDFC0C220721C148FFF772
:10100000F8FC0C220821BF48FFF7F3FC0C22092151
:10101000BC48FFF7EEFC0C220A21BA48FFF7E9FCB6
:101020000C220B21B748FFF7E4FC0C221146B5480F
:10103000FFF7DFFC0C220D21B248FFF7DAFC0C228F
:101040000E21B048FFF7D5FC0C220F21AD48FFF769
:10105000D0FC0C221146AC48FFF7CBFC0C22114609
:10106000AA48FFF7C6FC0F200890002009903C20FA
:101070000A9000200B900C900D900E90092001908A
:101080000020029008200390002004900590069014
:10109000079006200F9000201090119010201290C1
:1010A0000020139015901490169017904FF48050D4
:1010B0001890002019904FF480401A9000201B9047
:1010C00008A81C9001A81D900FA8FFF7D7FB0121CD
:1010D0000620FFF7B9FB322004F000FD01210020BB
:1010E00003F07AFF322004F0F9FC002003F0BAFB91
:1010F0008749888008468088FF280ADB0846808860
:101100004FF6FF71884204D081488088B0F5134FB4
:101110007ED1D32003F04AFF03F09AFB7C498880FC
:1011200003F096FB7A49888003F092FB7849888027
:10113000084680884FF6FF7101EA002074498880D4
:1011400003F086FB72498988084371498880084604
:10115000808849F2413188425AD0BF2003F026FFEF
:1011600003F076FB6A49888003F072FB6849888047
:1011700003F06EFB6649888003F06AFB644988804F
:10118000084680884FF6FF7101EA00206049888098
:1011900003F05EFB5E49898808435D498880084604
:1011A000808846F6040188427AD0D42003F0FEFEFF
:1011B00003F04EFB5649888003F04AFB544988806F
:1011C00003F046FB52498880084680884FF6FF713D
:1011D00001EA00204E49888003F03AFB4C49898897
:1011E00008434B4988800846808845F21031884280
:1011F00056D04FF45A4003F0D9FE03F029FB44497E
:1012000088804FF45B4003F0D1FE03F021FB00E047
:1012100046E03F498880084680884FF6FF7101EA22
:1012200000203B4988804FF45C4003F0BFFE03F090
:101230000FFB3749898808433549888008468088EC
:10124000B0F5004F02D145F21050888030488088B8
:1012500045F21051884223D0A12003F0A7FE03F0ED
:10126000F7FA2B49888003F0F3FA29498880084669
:1012700080884FF6FF7101EA00202549888003F03D
:10128000E7FA2349898808432149888008468088ED
:1012900045F26171884203D141F663101C49888090
:1012A0001B48808849F24131884211D01848808813
:1012B00045F2103188420BD01548808845F2105114
:1012C000884205D01248808841F6631188422DD1AA
:1012D0001048006820F00F004FF02041C1F81C01B9
:1012E0000846D0F81C0120F47060C1F81C010846C3
:1012F000D0F81C0140F003000EE0000000040240A2
:10130000000C02400010024000140240001802408D
:101310004E0000201C0100A0C1F81C010846D0F8B6
:101320001C0140F40070C1F81C0128E0FE488088D0
:1013300046F60401884205D0FB4880884CF20551EE
:1013400088421CD1F948006820F00F004FF020417E
:10135000C1F81C010846D0F81C0120F47060C1F8E7
:101360001C010846D0F81C0140F00A00C1F81C011D
:101370000846D0F81C0140F44060C1F81C01EA485E
:101380008188EBA0FEF77AFFE748808849F2413177
:1013900088427CD1CF2003F009FE002003F0FAFD43
:1013A000C12003F0F7FD302003F0F4FDED2003F041
:1013B000FDFD642003F0EEFD032003F0EBFD1220A1
:1013C00003F0E8FD812003F0E5FDE82003F0EEFDE9
:1013D000852003F0DFFD102003F0DCFD7A2003F010
:1013E000D9FDCB2003F0E2FD392003F0D3FD2C2002
:1013F00003F0D0FD002003F0CDFD342003F0CAFD42
:10140000022003F0C7FDF72003F0D0FD202003F0F9
:10141000C1FDEA2003F0CAFD002003F0BBFD00205F
:1014200003F0B8FDC02003F0C1FD1B2003F0B2FDA6
:10143000C12003F0BBFD012003F0ACFDC52003F08B
:10144000B5FD302003F0A6FD302003F0A3FDC7203A
:1014500003F0ACFDB72003F09DFD362003F0A6FDA0
:10146000482003F097FD3A2003F0A0FD552003F03B
:1014700091FDB12003F09AFD002003F08BFD1A20AE
:1014800003F088FDB62003F091FD0A2000E099E00A
:1014900003F080FDA22003F07DFDF22003F086FD25
:1014A000002003F077FD262003F080FD012003F0EB
:1014B00071FDE02003F07AFD0F2003F06BFD2A2080
:1014C00003F068FD282003F065FD082003F062FDAD
:1014D0000E2003F05FFD082003F05CFD542003F0B4
:1014E00059FDA92003F056FD432003F053FD0A20C7
:1014F00003F050FD0F2003F04DFD002003F04AFDE6
:10150000002003F047FD002003F044FD002003F01D
:1015100041FDE12003F04AFD002003F03BFD1520D2
:1015200003F038FD172003F035FD072003F032FDEE
:10153000112003F02FFD062003F02CFD2B2003F0DB
:1015400029FD562003F026FD3C2003F023FD052055
:1015500003F020FD102003F01DFD0F2003F01AFD05
:101560003F2003F017FD3F2003F014FD0F2003F090
:1015700011FD2B2003F01AFD002003F00BFD0020CD
:1015800003F008FD012003F005FD3F2003F002FDFC
:101590002A2003F00BFD002003F0FCFC002003F0E8
:1015A000F9FC002003F0F6FCEF2003F0F3FC11201F
:1015B00003F0FCFC782004F091FA292003F0F6FCFB
:1015C00003F02AB95848808846F6040188427CD145
:1015D000112003F0EBFC142004F080FAD02003F07B
:1015E000E5FC072003F0D6FC422003F0D3FC1D20CD
:1015F00003F0D0FCD12003F0D9FC002003F0CAFC9A
:101600001A2003F0C7FC092003F0C4FCD22003F029
:10161000CDFC012003F0BEFC222003F0BBFCC02067
:1016200003F0C4FC102003F0B5FC3B2003F0B2FC37
:10163000002003F0AFFC022003F0ACFC112003F00B
:10164000A9FCC52003F0B2FC032003F0A3FCC820D2
:1016500003F0ACFC002003F09DFC252003F09AFC75
:10166000212003F097FC052003F094FC002003F0F8
:1016700091FC0A2003F08EFC652003F08BFC2520F2
:1016800003F088FC772003F085FC502003F082FCF7
:101690000F2003F07FFC002003F07CFCF82003F017
:1016A00085FC012003F076FCFE2003F07FFC002087
:1016B00003F070FC022003F06DFC202003F076FCA8
:1016C000362003F073FC082000E039E003F062FCF0
:1016D0003A2003F06BFC552003F05CFC2B2003F058
:1016E00065FC002003F056FC002003F053FC0120B1
:1016F00003F050FC3F2003F04DFC2A2003F056FC81
:10170000002003F047FC002003F044FC012003F01C
:1017100041FCDF2003F03EFC782004F0DFF92920B3
:1017200003F044FC4CE700004E0000201C0100A028
:10173000204C43442049443A25780D0A000000001B
:10174000FE48808845F21031884240F07C87ED20C9
:1017500003F02CFC012003F01DFCFE2003F01AFC1A
:10176000EE2003F023FCDE2003F014FC212003F024
:1017700011FCF12003F01AFC012003F00BFCDF2028
:1017800003F014FC102003F005FCC42003F00EFC51
:101790008F2003F0FFFBC62003F008FC002003F0BD
:1017A000F9FBE22003F0F6FBE22003F0F3FBE2207A
:1017B00003F0F0FBBF2003F0F9FBAA2003F0EAFBE3
:1017C000B02003F0F3FB0D2003F0E4FB002003F056
:1017D000E1FB0D2003F0DEFB002003F0DBFB11201A
:1017E00003F0D8FB002003F0D5FB192003F0D2FB57
:1017F000002003F0CFFB212003F0CCFB002003F0FE
:10180000C9FB2D2003F0C6FB002003F0C3FB3D20E5
:1018100003F0C0FB002003F0BDFB5D2003F0BAFB2A
:10182000002003F0B7FB5D2003F0B4FB002003F0C1
:10183000B1FBB12003F0BAFB802003F0ABFB00202A
:1018400003F0A8FB8B2003F0A5FB002003F0A2FB14
:10185000962003F09FFB002003F09CFBB22003F0D6
:10186000A5FB002003F096FB002003F093FB022071
:1018700003F090FB002003F08DFB032003F08AFBB4
:10188000002003F087FBB32003F090FB002003F05F
:1018900081FB002003F07EFB002003F07BFB002097
:1018A00003F078FB002003F075FB002003F072FBCF
:1018B000002003F06FFB002003F06CFB002003F01E
:1018C00069FB002003F066FB002003F063FB0020AF
:1018D00003F060FB002003F05DFB002003F05AFBE7
:1018E000002003F057FB002003F054FB002003F01E
:1018F00051FB002003F04EFB002003F04BFB0020C7
:1019000003F048FB002003F045FB002003F042FBFE
:10191000002003F03FFB002003F03CFBB42003F069
:1019200045FB8B2003F036FB002003F033FB9620B1
:1019300003F030FB002003F02DFBA12003F02AFB75
:10194000002003F027FBB52003F030FB022003F05A
:1019500021FB002003F01EFB032003F01BFB0020F3
:1019600003F018FB042003F015FB002003F012FB2A
:10197000B62003F01BFB002003F00CFB002003F05B
:1019800009FBB72003F012FB002003F003FB00204B
:1019900003F000FB3F2003F0FDFA002003F0FAFA09
:1019A0005E2003F0F7FA002003F0F4FA642003F05D
:1019B000F1FA002003F0EEFA8C2003F0EBFA00209D
:1019C00003F0E8FAAC2003F0E5FA002003F0E2FAB5
:1019D000DC2003F0DFFA002003F0DCFA702003F0D3
:1019E000D9FA002003F0D6FA902003F0D3FA0020B1
:1019F00003F0D0FAEB2003F0CDFA002003F0CAFA8E
:101A0000DC2003F0C7FA002003F0C4FAB82003F08A
:101A1000CDFA002003F0BEFA002003F0BBFA00204C
:101A200003F0B8FA002003F0B5FA002003F0B2FA90
:101A3000002003F0AFFA002003F0ACFA002003F01E
:101A4000A9FABA2003F0B2FA242003F0A3FA002086
:101A500003F0A0FA002003F09DFA002003F09AFAA8
:101A6000C12003F0A3FA202003F094FA002003F031
:101A700091FA542003F08EFA002003F08BFAFF2035
:101A800003F088FA002003F085FAC22003F08EFAF2
:101A90000A2003F07FFA002003F07CFA042003F010
:101AA00079FA002003F076FAC32003F07FFA3C2095
:101AB00003F070FA002003F06DFA3A2003F06AFA9E
:101AC000002003F067FA392003F064FA002003F0E5
:101AD00061FA372003F05EFA002003F05BFA3C2045
:101AE00003F058FA002003F055FA362003F052FABA
:101AF000002003F04FFA322003F04CFA002003F0EC
:101B000049FA2F2003F046FA002003F043FA2C2074
:101B100003F040FA002003F03DFA292003F03AFADE
:101B2000002003F037FA262003F034FA002003F0F7
:101B300031FA242003F02EFA002001E04E000020AC
:101B400003F028FA242003F025FA002003F022FAFB
:101B5000232003F01FFA002003F01CFA3C2003F0BE
:101B600019FA002003F016FA362003F013FA0020C9
:101B700003F010FA322003F00DFA002003F00AFA05
:101B80002F2003F007FA002003F004FA2C2003F0C2
:101B900001FA002003F0FEF9292003F0FBF90020F0
:101BA00003F0F8F9262003F0F5F9002003F0F2F92C
:101BB000242003F0EFF9002003F0ECF9242003F0D7
:101BC000E9F9002003F0E6F9232003F0E3F900200F
:101BD00003F0E0F9C42003F0E9F9622003F0DAF938
:101BE000002003F0D7F9052003F0D4F9002003F01A
:101BF000D1F9842003F0CEF9002003F0CBF9F020D6
:101C000003F0C8F9002003F0C5F9182003F0C2F969
:101C1000002003F0BFF9A42003F0BCF9002003F07A
:101C2000B9F9182003F0B6F9002003F0B3F95020F9
:101C300003F0B0F9002003F0ADF90C2003F0AAF98D
:101C4000002003F0A7F9172003F0A4F9002003F007
:101C5000A1F9952003F09EF9002003F09BF9F320F1
:101C600003F098F9002003F095F9E62003F092F9CB
:101C7000002003F08FF9C52003F098F9322003F01B
:101C800089F9002003F086F9442003F083F900204D
:101C900003F080F9652003F07DF9002003F07AF964
:101CA000762003F077F9002003F074F9882003F020
:101CB00071F9002003F06EF9C62003F077F92020B7
:101CC00003F068F9002003F065F9172003F062F9CA
:101CD000002003F05FF9012003F05CF9002003F01D
:101CE00059F9C72003F062F9002003F053F90020EE
:101CF00003F050F9002003F04DF9002003F04AF9F9
:101D0000C82003F053F9002003F044F9002003F049
:101D100041F9002003F03EF9002003F03BF9C9200F
:101D200003F044F9002003F035F9002003F032F904
:101D3000002003F02FF9002003F02CF9002003F01D
:101D400029F9002003F026F9002003F023F90020F0
:101D500003F020F9002003F01DF9002003F01AF928
:101D6000002003F017F9002003F014F9002003F01D
:101D700011F9002003F00EF9002003F00BF9002008
:101D800003F008F9E02003F011F9162003F002F93E
:101D9000002003F0FFF81C2003F0FCF8002003F003
:101DA000F9F8212003F0F6F8002003F0F3F83620CC
:101DB00003F0F0F8002003F0EDF8462003F0EAF815
:101DC000002003F0E7F8522003F0E4F8002003F0CD
:101DD000E1F8642003F0DEF8002003F0DBF87A205D
:101DE00003F0D8F8002003F0D5F88B2003F0D2F8E8
:101DF000002003F0CFF8992003F0CCF8002003F086
:101E0000C9F8A82003F0C6F8002003F0C3F8B920F1
:101E100003F0C0F8002003F0BDF8C42003F0BAF8C6
:101E2000002003F0B7F8CA2003F0B4F8002003F054
:101E3000B1F8D22003F0AEF8002003F0ABF8D920BF
:101E400003F0A8F8002003F0A5F8E02003F0A2F8C2
:101E5000002003F09FF8F32003F09CF8002003F02B
:101E600099F8E12003F0A2F8162003F093F800207F
:101E700003F090F81C2003F08DF8002003F08AF89E
:101E8000222003F087F8002003F084F8362003F0C6
:101E900081F8002003F07EF8452003F07BF8002055
:101EA00003F078F8522003F075F8002003F072F880
:101EB000642003F06FF8002003F06CF87A2003F040
:101EC00069F8002003F066F88B2003F063F8002027
:101ED00003F060F8992003F05DF8002003F05AF851
:101EE000A82003F057F8002003F054F8B92003F0BD
:101EF00051F8002003F04EF8C42003F04BF8002006
:101F000003F048F8CA2003F045F8002003F042F837
:101F1000D22003F03FF8002003F03CF8D82003F073
:101F200039F8002003F036F8E02003F033F8002001
:101F300003F030F8F32003F02DF8002003F02AF826
:101F4000E22003F033F8052003F024F8002003F02A
:101F500021F80B2003F01EF8002003F01BF81B20D3
:101F600003F018F8002003F015F8342003F012F8FD
:101F7000002003F00FF8442003F00CF8002003F0D9
:101F800009F84F2003F006F8002003F003F8612061
:101F900003F000F8002002F0FDFF792002F0FAFFC4
:101FA000002002F0F7FF882002F0F4FF002002F08A
:101FB000F1FF972002F0EEFF002002F0EBFFA620D9
:101FC00002F0E8FF002002F0E5FFB72002F0E2FF98
:101FD000002002F0DFFFC22002F0DCFF002002F050
:101FE000D9FFC72002F0D6FF002002F0D3FFD12096
:101FF00002F0D0FF002002F0CDFFD62002F0CAFF91
:10200000002002F0C7FFDD2002F0C4FF002002F034
:10201000C1FFF32002F0BEFF002002F0BBFFE3206F
:1020200002F0C4FF052002F0B5FF002002F0B2FF6D
:102030000A2002F0AFFF002002F0ACFF1C2002F0EB
:10204000A9FF002002F0A6FF332002F0A3FF00202A
:1020500002F0A0FF442002F09DFF002002F09AFF52
:10206000502002F097FF002002F094FF622002F05F
:1020700091FF002002F08EFF782002F08BFF0020FD
:1020800002F088FF882002F085FF002002F082FF26
:10209000972002F07FFF002002F07CFFA62002F0D4
:1020A00079FF002002F076FFB72002F073FF0020D6
:1020B00002F070FFC22002F06DFF002002F06AFF04
:1020C000C72002F067FF002002F064FFD12002F079
:1020D00061FF002002F05EFFD52002F05BFF0020D0
:1020E00002F058FFDD2002F055FF002002F052FF01
:1020F000F32002F04FFF002002F04CFFE42002F03A
:1021000055FF012002F046FF002002F043FF0120AE
:1021100002F040FF002002F03DFF022002F03AFFF3
:10212000002002F037FF2A2002F034FF002002F0E6
:1021300031FF3C2002F02EFF002002F02BFF4B204D
:1021400002F028FF002002F025FF5D2002F022FFB0
:10215000002002F01FFF742002F01CFF002002F09C
:1021600019FF842002F016FF002002F013FF9320D5
:1021700002F010FF002002F00DFFA22002F00AFF83
:10218000002002F007FFB32002F004FF002002F05D
:1021900001FFBE2002F0FEFE002002F0FBFEC42084
:1021A00002F0F8FE002002F0F5FECD2002F0F2FE73
:1021B000002002F0EFFED32002F0ECFE002002F03F
:1021C000E9FEDD2002F0E6FE002002F0E3FEF3204F
:1021D00002F0E0FE002002F0DDFEE52002F0E6FE67
:1021E000002002F0D7FE002002F0D4FE002002F012
:1021F000D1FE002002F0CEFE022002F0CBFE002035
:1022000002F0C8FE292002F0C5FE002002F0C2FE46
:102210003C2002F0BFFE002002F0BCFE4B2002F08A
:10222000B9FE002002F0B6FE5D2002F0B3FE0020F1
:1022300002F0B0FE742002F0ADFE002002F0AAFE13
:10224000842002F0A7FE002002F0A4FE932002F0FA
:10225000A1FE002002F09EFEA22002F09BFE0020C4
:1022600002F098FEB32002F095FE002002F092FEEC
:10227000BE2002F08FFE002002F08CFEC42002F08F
:1022800089FE002002F086FECD2002F083FE0020B1
:1022900002F080FED32002F07DFE002002F07AFEE4
:1022A000DC2002F077FE002002F074FEF32002F042
:1022B00071FE002002F06EFEE62002F077FE112093
:1022C00002F068FE002002F065FE342002F062FE9B
:1022D000002002F05FFE562002F05CFE002002F0BB
:1022E00059FE762002F056FE002002F053FE7720C1
:1022F00002F050FE002002F04DFE662002F04AFE81
:10230000002002F047FE882002F044FE002002F088
:1023100041FE992002F03EFE002002F03BFEBB2071
:1023200002F038FE002002F035FE992002F032FE65
:10233000002002F02FFE662002F02CFE002002F0AA
:1023400029FE552002F026FE002002F023FE552033
:1023500002F020FE002002F01DFE452002F01AFED1
:10236000002002F017FE432002F014FE002002F0CD
:1023700011FE442002F00EFE002002F00BFEE720CA
:1023800002F014FE322002F005FE002002F002FEF0
:10239000552002F0FFFD002002F0FCFD762002F047
:1023A000F9FD002002F0F6FD662002F0F3FD0020AA
:1023B00002F0F0FD672002F0EDFD002002F0EAFDE2
:1023C000672002F0E7FD002002F0E4FD872002F024
:1023D000E1FD002002F0DEFD992002F0DBFD00208F
:1023E00002F0D8FDBB2002F0D5FD002002F0D2FDA6
:1023F000992002F0CFFD002002F0CCFD772002F002
:10240000C9FD002002F0C6FD442002F0C3FD0020FB
:1024100002F0C0FD562002F0BDFD002002F0BAFD22
:10242000232002F0B7FD002002F0B4FD332002F0BB
:10243000B1FD002002F0AEFD452002F0ABFD002012
:1024400002F0A8FDE82002F0B1FD002002F0A2FD9C
:10245000002002F09FFD992002F09CFD002002F078
:1024600099FD872002F096FD002002F093FD882060
:1024700002F090FD002002F08DFD772002F08AFD31
:10248000002002F087FD662002F084FD002002F0AB
:1024900081FD882002F07EFD002002F07BFDAA2055
:1024A00002F078FD002002F075FDBB2002F072FD05
:1024B000002002F06FFD992002F06CFD002002F078
:1024C00069FD662002F066FD002002F063FD5520E4
:1024D00002F060FD002002F05DFD552002F05AFD83
:1024E000002002F057FD442002F054FD002002F0CD
:1024F00051FD442002F04EFD002002F04BFD55201E
:1025000002F048FD002002F045FDE92002F04EFDFA
:10251000AA2002F03FFD002002F03CFD002002F066
:1025200039FD002002F036FD002002F03FFDAA2018
:1025300002F030FDCF2002F039FD002002F02AFD2C
:10254000002002F027FD002002F024FD002002F010
:1025500021FD002002F01EFD002002F01BFD0020E6
:1025600002F018FD002002F015FD002002F012FD1F
:10257000002002F00FFD002002F00CFD002002F010
:1025800009FD002002F006FD002002F003FD0020FE
:1025900002F000FD002002F0FDFC002002F0FAFC39
:1025A000F02002F003FD002002F0F4FC502002F0C5
:1025B000F1FC002002F0EEFC002002F0EBFC002019
:1025C00002F0E8FCF32002F0F1FC002002F0E2FC53
:1025D000F92002F0EBFC062002F0DCFC102002F0F7
:1025E000D9FC292002F0D6FC002002F0D3FC3A20CE
:1025F00002F0DCFC552002F0CDFC112002F0D6FCEC
:10260000642003F06BFA292002F0D0FC352002F0A0
:10261000CDFC002002F0BEFC512002F0C7FCFF20E0
:1026200002F0B8FC532002F0C1FC2C2002F0B2FCF6
:10263000552002F0BBFC822002F0ACFC2C2002F002
:10264000B5FC02F0E9B8FE48808845F21051884296
:102650007ED155214FF4704002F0BEFCAA214FF20A
:10266000010002F0B9FC52214FF2020002F0B4FC6A
:1026700008214FF2030002F0AFFC01214FF20400E9
:1026800002F0AAFC0D214FF4304002F0A5FC0D2110
:102690004BF2010002F0A0FC0D214BF2020002F00F
:1026A0009BFC34214FF4364002F096FC34214BF26F
:1026B000016002F091FC34214BF2026002F08CFCCC
:1026C0000D214FF4314002F087FC0D214BF2011037
:1026D00002F082FC0D214BF2021002F07DFC34214D
:1026E0004FF4374002F078FC34214BF2017002F0D5
:1026F00073FC34214BF2027002F06EFC00214FF4A7
:10270000324002F069FC00214BF2012002F064FC2F
:1027100000214BF2022002F05FFC24214FF43840EC
:1027200002F05AFC24214BF6010002F055FC242152
:102730004BF6020002F050FC01214FF43F4002F042
:102740004BFC0F214FF4334002F046FC0F2100E018
:10275000FEE34BF2013002F03FFC0F214BF202305E
:1027600002F03AFC34214FF4394002F035FC3421B8
:102770004BF6011002F030FC34214BF6021002F04F
:102780002BFC08214FF4354002F026FC08214BF2C7
:10279000015002F021FC08214BF2025002F01CFC17
:1027A00003214FF4424002F017FC24214FF43A4039
:1027B00002F012FC24214BF6012002F00DFC242132
:1027C0004BF6022002F008FC00214FF43C4002F0DE
:1027D00003FC78214BF6014002F0FEFB00214BF692
:1027E000024002F0F9FB00214FF43D4002F0F4FBFF
:1027F00078214BF6015002F0EFFB00214BF602501E
:1028000002F0EAFB00214FF43E4002F0E5FB6421B8
:102810004BF6016002F0E0FB00214FF4514002F062
:10282000DBFB33214DF2011002F0D6FB00214DF20B
:10283000021002F0D1FB34214DF2031002F0CCFB68
:1028400000214DF2041002F0C7FB3A214DF20510B1
:1028500002F0C2FB00214DF2061002F0BDFB4A213E
:102860004DF2071002F0B8FB00214DF2081002F003
:10287000B3FB5C214DF2091002F0AEFB00214DF2DA
:102880000A1002F0A9FB81214DF20B1002F0A4FB0B
:1028900000214DF20C1002F09FFBA6214DF20D100D
:1028A00002F09AFB00214DF20E1002F095FBE5219B
:1028B0004DF20F1002F090FB01214DF2101002F0CA
:1028C0008BFB13214DF2111002F086FB01214DF21A
:1028D000121002F081FB54214DF2131002F07CFB28
:1028E00001214DF2141002F077FB82214DF21510F8
:1028F00002F072FB01214DF2161002F06DFBCA21AD
:102900004DF2171002F068FB02214DF2181002F090
:1029100063FB00214DF2191002F05EFB02214DF223
:102920001A1002F059FB01214DF21B1002F054FB6A
:1029300002214DF21C1002F04FFB34214DF21D100C
:1029400002F04AFB02214DF21E1002F045FB672106
:102950004DF21F1002F040FB02214DF2201002F058
:102960003BFB84214DF2211002F036FB02214DF297
:10297000221002F031FBA4214DF2231002F02CFBB7
:1029800002214DF2241002F027FBB7214DF2251051
:1029900002F022FB02214DF2261002F01DFBCF2196
:1029A0004DF2271002F018FB02214DF2281002F020
:1029B00013FBDE214DF2291002F00EFB02214DF235
:1029C0002A1002F009FBF2214DF22B1002F004FB59
:1029D00002214DF22C1002F0FFFAFE214DF22D10D3
:1029E00002F0FAFA03214DF22E1002F0F5FA10214E
:1029F0004DF22F1002F0F0FA03214DF2301002F0E8
:102A0000EBFA33214DF2311002F0E6FA03214DF2D8
:102A1000321002F0E1FA6D214DF2331002F0DCFACF
:102A200000214FF4524002F0D7FA33214DF2012039
:102A300002F0D2FA00214DF2022002F0CDFA01E0BC
:102A40004E00002034214DF2032002F0C5FA00218F
:102A50004DF2042002F0C0FA3A214DF2052002F0B6
:102A6000BBFA00214DF2062002F0B6FA4A214DF2DF
:102A7000072002F0B1FA00214DF2082002F0ACFA72
:102A80005C214DF2092002F0A7FA00214DF20A2044
:102A900002F0A2FA81214DF20B2002F09DFA0021F2
:102AA0004DF20C2002F098FAA6214DF20D2002F012
:102AB00093FA00214DF20E2002F08EFAE5214DF23C
:102AC0000F2002F089FA01214DF2102002F084FA61
:102AD00013214DF2112002F07FFA01214DF2122054
:102AE00002F07AFA54214DF2132002F075FA012116
:102AF0004DF2142002F070FA82214DF2152002F0FE
:102B00006BFA01214DF2162002F066FACA214DF24D
:102B1000172002F061FA02214DF2182002F05CFA4F
:102B200000214DF2192002F057FA02214DF21A202D
:102B300002F052FA01214DF21B2002F04DFA02215F
:102B40004DF21C2002F048FA34214DF21D2002F013
:102B500043FA02214DF21E2002F03EFA67214DF2A7
:102B60001F2002F039FA02214DF2202002F034FA3F
:102B700084214DF2212002F02FFA02214DF2222071
:102B800002F02AFAA4214DF2232002F025FA0221B4
:102B90004DF2242002F020FAB7214DF2252002F058
:102BA0001BFA02214DF2262002F016FACF214DF237
:102BB000272002F011FA02214DF2282002F00CFA2F
:102BC000DE214DF2292002F007FA02214DF22A20DF
:102BD00002F002FAF2214DF22B2002F0FDF902215F
:102BE0004DF22C2002F0F8F9FE214DF22D2002F0DA
:102BF000F3F903214DF22E2002F0EEF910214DF2EF
:102C00002F2002F0E9F903214DF2302002F0E4F91F
:102C100033214DF2312002F0DFF903214DF2322051
:102C200002F0DAF96D214DF2332002F0D5F90021DE
:102C30004FF4534002F0D0F933214DF2013002F04D
:102C4000CBF900214DF2023002F0C6F934214DF2E9
:102C5000033002F0C1F900214DF2043002F0BCF95A
:102C60003A214DF2053002F0B7F900214DF206305D
:102C700002F0B2F94A214DF2073002F0ADF900211D
:102C80004DF2083002F0A8F95C214DF2093002F053
:102C9000A3F900214DF20A3002F09EF981214DF294
:102CA0000B3002F099F900214DF20C3002F094F94A
:102CB000A6214DF20D3002F08FF900214DF20E30B9
:102CC00002F08AF9E5214DF20F3002F085F9012179
:102CD0004DF2103002F080F913214DF2113002F064
:102CE0007BF901214DF2123002F076F954214DF2B8
:102CF000133002F071F901214DF2143002F06CF939
:102D000082214DF2153002F067F901214DF21630A3
:102D100002F062F9CA214DF2173002F05DF902218A
:102D20004DF2183002F058F900214DF2193002F03E
:102D300053F902214DF21A3002F04EF901214DF201
:102D40001B3002F049F902214DF21C3002F044F927
:102D500034214DF21D3002F03FF902214DF21E30B8
:102D600002F03AF967214DF21F3002F035F90221E5
:102D70004DF2203002F030F984214DF2213002F082
:102D80002BF902214DF2223002F026F9A4214DF256
:102D9000233002F021F902214DF2243002F01CF917
:102DA000B7214DF2253002F017F902214DF22630FD
:102DB00002F012F9CF214DF2273002F00DF9022175
:102DC0004DF2283002F008F9DE214DF2293002F0F0
:102DD00003F902214DF22A3002F0FEF8F2214DF201
:102DE0002B3002F0F9F802214DF22C3002F0F4F809
:102DF000FE214DF22D3002F0EFF803214DF22E307E
:102E000002F0EAF810214DF22F3002F0E5F803212C
:102E10004DF2303002F0E0F833214DF2313002F063
:102E2000DBF803214DF2323002F0D6F86D214DF27D
:102E3000333002F0D1F800214FF4544002F0CCF8C6
:102E400033214DF2014002F0C7F800214DF202405B
:102E500002F0C2F834214DF2034002F0BDF8002127
:102E60004DF2044002F0B8F83A214DF2054002F06C
:102E7000B3F800214DF2064002F0AEF84A214DF2BF
:102E8000074002F0A9F800214DF2084002F0A4F832
:102E90005C214DF2094002F09FF800214DF20A40FA
:102EA00002F09AF881214DF20B4002F095F80021D2
:102EB0004DF20C4002F090F8A6214DF20D4002F0C8
:102EC0008BF800214DF20E4002F086F8E5214DF21C
:102ED0000F4002F081F801214DF2104002F07CF821
:102EE00013214DF2114002F077F801214DF212400A
:102EF00002F072F854214DF2134002F06DF80121F6
:102F00004DF2144002F068F882214DF2154002F0B3
:102F100063F801214DF2164002F05EF8CA214DF22D
:102F2000174002F059F802214DF2184002F054F80F
:102F300000214DF2194002F04FF802214DF21A40E3
:102F400002F04AF801214DF21B4002F045F800E082
:102F500004E302214DF21C4002F03EF834214DF210
:102F60001D4002F039F802214DF21E4002F034F803
:102F700067214DF21F4002F02FF802214DF2204050
:102F800002F02AF884214DF2214002F025F80221B6
:102F90004DF2224002F020F8A4214DF2234002F02D
:102FA0001BF802214DF2244002F016F8B7214DF231
:102FB000254002F011F802214DF2264002F00CF8F3
:102FC000CF214DF2274002F007F802214DF22840B0
:102FD00002F002F8DE214DF2294001F0FDFF02214E
:102FE0004DF22A4001F0F8FFF2214DF22B4001F0A2
:102FF000F3FF02214DF22C4001F0EEFFFE214DF2D5
:103000002D4001F0E9FF03214DF22E4001F0E4FFD5
:1030100010214DF22F4001F0DFFF03214DF230402F
:1030200001F0DAFF33214DF2314001F0D5FF0321E9
:103030004DF2324001F0D0FF6D214DF2334001F0EE
:10304000CBFF00214FF4554001F0C6FF33214DF274
:10305000015001F0C1FF00214DF2025001F0BCFF10
:1030600034214DF2035001F0B7FF00214DF204501E
:1030700001F0B2FF3A214DF2055001F0ADFF002101
:103080004DF2065001F0A8FF4A214DF2075001F021
:10309000A3FF00214DF2085001F09EFF5C214DF28C
:1030A000095001F099FF00214DF20A5001F094FF00
:1030B00081214DF20B5001F08FFF00214DF20C5099
:1030C00001F08AFFA6214DF20D5001F085FF00218D
:1030D0004DF20E5001F080FFE5214DF20F5001F04E
:1030E0007BFF01214DF2105001F076FF13214DF2CC
:1030F000115001F071FF01214DF2125001F06CFFEF
:1031000054214DF2135001F067FF01214DF214508C
:1031100001F062FF82214DF2155001F05DFF0121A7
:103120004DF2165001F058FFCA214DF2175001F030
:1031300053FF02214DF2185001F04EFF00214DF2D5
:10314000195001F049FF02214DF21A5001F044FFDD
:1031500001214DF21B5001F03FFF02214DF21C50A6
:1031600001F03AFF34214DF21D5001F035FF0221EC
:103170004DF21E5001F030FF67214DF21F5001F05B
:103180002BFF02214DF2205001F026FF84214DF249
:10319000215001F021FF02214DF2225001F01CFFCD
:1031A000A4214DF2235001F017FF02214DF22450CB
:1031B00001F012FFB7214DF2255001F00DFF022161
:1031C0004DF2265001F008FFCF214DF2275001F0BB
:1031D00003FF02214DF2285001F0FEFEDE214DF2E8
:1031E000295001F0F9FE02214DF22A5001F0F4FEBF
:1031F000F2214DF22B5001F0EFFE02214DF22C5046
:1032000001F0EAFEFE214DF22D5001F0E5FE032112
:103210004DF22E5001F0E0FE10214DF22F5001F042
:10322000DBFE03214DF2305001F0D6FE33214DF28A
:10323000315001F0D1FE03214DF2325001F0CCFEAD
:103240006D214DF2335001F0C7FE00214FF456407E
:1032500001F0C2FE33214DF2016001F0BDFE0021FC
:103260004DF2026001F0B8FE34214DF2036001F02E
:10327000B3FE00214DF2046001F0AEFE3A214DF2A2
:10328000056001F0A9FE00214DF2066001F0A4FEE8
:103290004A214DF2076001F09FFE00214DF20860C7
:1032A00001F09AFE5C214DF2096001F095FE0021CB
:1032B0004DF20A6001F090FE81214DF20B6001F0A9
:1032C0008BFE00214DF20C6001F086FEA6214DF22E
:1032D0000D6001F081FE00214DF20E6001F07CFED8
:1032E000E5214DF20F6001F077FE01214DF21060F3
:1032F00001F072FE13214DF2116001F06DFE01210B
:103300004DF2126001F068FE54214DF2136001F09D
:1033100063FE01214DF2146001F05EFE82214DF248
:10332000156001F059FE01214DF2166001F054FEC6
:10333000CA214DF2176001F04FFE02214DF21860D4
:1033400001F04AFE00214DF2196001F045FE022114
:103350004DF21A6001F040FE01214DF21B6001F0B8
:103360003BFE02214DF21C6001F036FE34214DF28D
:103370001D6001F031FE02214DF21E6001F02CFEB5
:1033800067214DF21F6001F027FE02214DF22060FF
:1033900001F022FE84214DF2216001F01DFE022188
:1033A0004DF2226001F018FEA4214DF2236001F0DD
:1033B00013FE02214DF2246001F00EFEB7214DF202
:1033C000256001F009FE02214DF2266001F004FEA5
:1033D000CF214DF2276001F0FFFD02214DF2286060
:1033E00001F0FAFDDE214DF2296001F0F5FD022128
:1033F0004DF22A6001F0F0FDF2214DF22B6001F058
:10340000EBFD02214DF22C6001F0E6FDFE214DF2B4
:103410002D6001F0E1FD03214DF22E6001F0DCFD95
:1034200010214DF22F6001F0D7FD03214DF23060E5
:1034300001F0D2FD33214DF2316001F0CDFD0321C9
:103440004DF2326001F0C8FD6D214DF2336001F0A4
:10345000C3FD55214FF4704001F0BEFDAA214FF28B
:10346000010001F0B9FD52214FF2020001F0B4FD5C
:1034700008214FF2030001F0AFFD00214FF20400DC
:1034800001F0AAFDCC214FF4314001F0A5FD00214F
:103490004BF2011001F0A0FD05214FF4364001F080
:1034A0009BFD70214FF4374001F096FD70214BF2E7
:1034B000017001F091FD01214FF4384001F08CFDC5
:1034C00003214BF6010001F087FD03214BF60200BA
:1034D00001F082FD03214BF6030001F07DFD022186
:1034E0004FF43C4001F078FD00214BF6014001F023
:1034F00073FD00214BF6024001F06EFDD0214FF428
:10350000494001F069FD02214CF6011001F064FD13
:1035100050214CF6021001F05FFD50214CF60310D3
:1035200001F05AFD50214CF6041001F055FD002128
:103530004FF4545001F050FD55214FF4685001F004
:103540004BFD4FF4885001F031FD782002F0E2FA93
:103550004FF4245001F02AFD01F05EB9FE48808846
:1035600049F2253188427DD147F6F001E52001F08E
:1035700033FD4FF48071012001F02EFD4FF4E06126
:10358000022001F029FD41F23001032001F024FD69
:103590000021042001F020FD40F20221082001F06A
:1035A0001BFD0021092001F017FD00210A2001F078
:1035B00013FD00210C2001F00FFD00210D2001F072
:1035C0000BFD00210F2001F007FD0021102001F06C
:1035D00003FD0721112001F0FFFC0021122001F062
:1035E000FBFC0021132001F0F7FC0021072001F073
:1035F000F3FC41F29061102001F0EEFC40F2272133
:10360000112001F0E9FC9D21122001F0E5FC4FF4AE
:10361000C851132001F0E0FC2521292001F0DCFC39
:103620000D212B2001F0D8FC0721302001F0D4FC23
:1036300040F20331312001F0CFFC0321322001F0B0
:10364000CBFC40F20621352001F0C6FC08213620D3
:1036500001F0C2FC40F20641372001F0BDFC4FF4FE
:10366000417100E058E0382001F0B6FC0721392014
:1036700001F0B2FC40F202613C2001F0ADFC0821F7
:103680003D2001F0A9FC0021502001F0A5FCEF2114
:10369000512001F0A1FC0021522001F09DFC40F2DC
:1036A0003F11532001F098FC4FF42741602001F0B6
:1036B00093FC0121612001F08FFC00216A2001F0C0
:1036C0008BFC0021802001F087FC0021812001F08B
:1036D00083FC0021822001F07FFC0021832001F087
:1036E0007BFC0021842001F077FC0021852001F083
:1036F00073FC1021902001F06FFC4FF4C061922008
:1037000001F06AFC40F23311072001F065FC222130
:10371000002001F061FC1FE78F48808849F22831C2
:1037200088427DD141F28F01EC2001F055FC41F23D
:103730003421EF2001F050FC4FF48071012001F0A2
:103740004BFC4FF4E061022001F046FC41F23001F5
:10375000032001F041FC0021042001F03DFC40F277
:103760000221082001F038FC0021092001F034FC7E
:1037700000210A2001F030FC01210C2001F02CFC7A
:1037800000210D2001F028FC00210F2001F024FC75
:103790000021102001F020FC0721112001F01CFC69
:1037A0000021122001F018FC0021132001F014FC6C
:1037B0000121072001F010FC322002F08FF941F2C4
:1037C0009041102001F008FC40F22721112001F067
:1037D00003FC322002F082F98A21122001F0FCFB66
:1037E000322002F07BF94FF4D051132001F0F4FBAA
:1037F0000621292001F0F0FB0D212B2001F0ECFB2C
:10380000322002F06BF90021202001F0E5FB0021BD
:10381000212001F0E1FB322002F060F9002100E0FC
:1038200075E0302001F0D8FB40F20461312001F056
:10383000D3FB40F20531322001F0CEFB00213520D0
:1038400001F0CAFB40F60941362001F0C5FB4FF4F8
:103850000171372001F0C0FB40F20131382001F046
:10386000BBFB40F20771392001F0B6FB00213C2080
:1038700001F0B2FB40F60A213D2001F0ADFB322001
:1038800002F02CF90021502001F0A6FBEF2151207D
:1038900001F0A2FB0021522001F09EFB40F23F11FB
:1038A000532001F099FB4FF42741602001F094FB75
:1038B0000121612001F090FB00216A2001F08CFBC6
:1038C0000021802001F088FB0021812001F084FB91
:1038D0000021822001F080FB0021832001F07CFB8D
:1038E0000021842001F078FB0021852001F074FB89
:1038F0001021902001F070FB4FF4C061922001F084
:103900006BFB40F23311072001F066FB24E61248FE
:10391000808849F2203188427ED10021084601F09A
:103920005BFB4FF48071012001F056FB4FF4E06126
:10393000022001F051FB41F23001032001F04CFB69
:103940000021042001F048FB40F20221082001F090
:1039500043FB0021092001E04E00002001F03CFB68
:1039600000210A2001F038FB01210C2001F034FB7A
:1039700000210D2001F030FB00210F2001F02CFB75
:10398000322002F0ABF840F20111072001F024FBD5
:10399000322002F0A3F84FF48651102001F01CFBF6
:1039A0000721112001F018FB4FF48871122001F05B
:1039B00013FB4FF43061132001F00EFB002129208E
:1039C00001F00AFB44F210012B2001F005FB00215D
:1039D000502001F001FBEF21512001F0FDFA002100
:1039E000522001F0F9FA40F23F11532001F0F4FAAD
:1039F0004FF41C51602001F0EFFA0121612001F029
:103A0000EBFA00216A2001F0E7FA0021802001F0A2
:103A1000E3FA0021812000E030E001F0DDFA00212E
:103A2000822001F0D9FA0021832001F0D5FA00218B
:103A3000842001F0D1FA0021852001F0CDFA102177
:103A4000902001F0C9FA0021922001F0C5FA01216D
:103A5000932001F0C1FA4FF48871952001F0BCFA6F
:103A60000021972001F0B8FA0021982001F0B4FA63
:103A700040F27311072001F0AFFA6DE5FE4880882F
:103A800049F2313188427DD141F21401E72001F041
:103A9000A3FA4FF48071012001F09EFA4FF40071F7
:103AA000022001F099FA41F23801032001F094FA62
:103AB00040F20221082001F08FFA0021092001F0D4
:103AC0008BFA00210A2001F087FA00210C2001F076
:103AD00083FA00210D2001F07FFA00210F2001F070
:103AE0007BFA0021102001F077FA0721112001F064
:103AF00073FA0021122001F06FFA0021132001F067
:103B00006BFAC82001F0EAFF41F29061102001F049
:103B100063FA40F22721112001F05EFA322001F011
:103B2000DDFF0C21122001F057FA322001F0D6FF00
:103B30004FF40061132001F04FFA1121292001F008
:103B40004BFA0B212B2001F047FA322001F0C6FF7F
:103B50000021202001F040FA40F23F11212001F025
:103B60003BFA0021302001F037FA4FF48371312005
:103B700001F032FA0021322001F02EFA4FF40171E7
:103B8000352000E064E001F027FA41F20A613620B6
:103B900001F022FA40F20771372001F01DFA4FF4CC
:103BA0008371382001F018FA40F20771392001F0D2
:103BB00013FA40F202413C2001F00EFA40F60F41A8
:103BC0003D2001F009FA0021502001F005FAEF2113
:103BD000512001F001FA0021522001F0FDF940F2DC
:103BE0003F11532001F0F8F94FF41C51602001F00F
:103BF000F3F90121612001F0EFF900216A2001F0C1
:103C0000EBF90021802001F0E7F90021812001F08B
:103C1000E3F90021822001F0DFF90021832001F087
:103C2000DBF90021842001F0D7F90021852001F083
:103C3000D3F91021902001F0CFF94FF4C061922008
:103C400001F0CAF940F23311072001F0C5F983E40D
:103C50008948808845F2084188427DD14FF48071BF
:103C6000012001F0B9F94FF4E061022001F0B4F94C
:103C700041F23001032001F0AFF90021042001F0EE
:103C8000ABF940F20721082001F0A6F90021092034
:103C900001F0A2F900210A2001F09EF900210C2078
:103CA00001F09AF900210D2001F096F900210F2072
:103CB00001F092F9142001F011FF41F2B0611020DF
:103CC00001F08AF90121112001F086F90121172064
:103CD00001F082F94FF49C71122001F07DF94FF44C
:103CE0000061132001F078F90921292001F074F90D
:103CF00009212A2001F070F90021A42001F06CF9BB
:103D00000021502001F068F9EF21512001F064F901
:103D10000021522001F060F940F23F11532001F0E0
:103D20005BF94FF41C51602001F056F9012161202C
:103D300001F052F900216A2001F04EF900218020A3
:103D400001F04AF90021812001F046F9002182208A
:103D500001F042F9002100E024E0832001F03CF969
:103D60000021842001F038F90021852001F034F988
:103D70001321902001F030F90021922001F02CF95C
:103D80000321932001F028F94FF48871952001F068
:103D900023F940F27311072001F01EF9322001F0DF
:103DA0009DFEB8E43448808841F2055188427DD1B7
:103DB0000021072001F010F9322001F08FFE4FF4AE
:103DC0008E71122001F008F90121A42001F004F9FC
:103DD0000F21082001F000F908210A2001F0FCF869
:103DE00008210D2001F0F8F840F20771302001F0B1
:103DF000F3F80721312001F0EFF840F2036132209F
:103E000001F0EAF84FF4E061332001F0E5F840F208
:103E10000221342001F0E0F80221352001F0DCF825
:103E200041F60F71362001F0D7F840F207713720C4
:103E300001F0D2F80021382001F0CEF8002139201D
:103E400001F0CAF840F207713A2001F0C5F80021EC
:103E50003B2001F0C1F807213C2001F0BDF8002112
:103E60003D2001F0B9F8322001F038FE0121072091
:103E700001F0B2F8012101E04E000020172001F00E
:103E8000ABF8322001F02AFE4FF4BD51102001F0B2
:103E9000A3F840F21721112001F09EF84FF48F7122
:103EA000122001F099F84FF4706100E098E01320BF
:103EB00001F092F800212A2001F08EF80A21292031
:103EC00001F08AF84FF49F71122001F085F800216B
:103ED000502001F081F8EF21512001F07DF8002100
:103EE000522001F079F840F23F11532001F074F8AC
:103EF0004FF41C51602001F06FF80121612001F0A6
:103F00006BF800216A2001F067F80021802001F0A1
:103F100063F80021812001F05FF80021822001F088
:103F20005BF80021832001F057F80021842001F084
:103F300053F80021852001F04FF81321902001F063
:103F40004BF84FF44071922001F046F80521932080
:103F500001F042F80021952001F03EF80021972061
:103F600001F03AF80021982001F036F84FF4807102
:103F7000012001F031F84FF4E061022001F02CF84B
:103F800041F23801032001F027F80021042001F05C
:103F900023F800210C2001F01FF800210F2001F070
:103FA0001BF80021202001F017F80021212001F04A
:103FB00013F82121072001F00FF8142001F08EFDE5
:103FC0006121072001F008F8142001F087FD40F27C
:103FD0007311072001F000F8142001F07FFD95E433
:103FE000FE4880884BF2055188427CD1002108466A
:103FF00000F0F2FF0021084600F0EEFF0021084625
:1040000000F0EAFF0021084600F0E6FF0121A420AD
:1040100000F0E2FF142001F061FD4FF41C5160201C
:1040200000F0DAFF40F20221082000F0D5FF4FF443
:104030000571302000F0D0FF43F21571312000F0FF
:10404000CBFF40F20461322000F0C6FF40F616615B
:10405000332000F0C1FF42F21121342000F0BCFFF8
:104060004FF4A851352000F0B7FF48F20751362031
:1040700000F0B2FF41F20741372000F0ADFF41F2FE
:104080000341382000F0A8FF2021392000F0A4FFD0
:104090001A21902000F0A0FF0021102000F09CFFCA
:1040A0000721112000F098FF0021122000F094FF5A
:1040B0000021132000F090FF142001F00FFD4FF4B9
:1040C000E661102000F088FF40F23711112000F067
:1040D00083FF142001F002FD4FF4DC71122000F088
:1040E0007BFF142000E085E001F0F8FC4FF47061E4
:1040F000132000F071FF80212A2000F06DFF48217D
:10410000292000F069FF142001F0E8FC4FF48071D1
:10411000012000F061FF4FF4E061022000F05CFF3D
:1041200041F23801032000F057FF40F2022108203D
:1041300000F052FF00210A2000F04EFF00210C2069
:1041400000F04AFF00210D2000F046FF30210E2034
:1041500000F042FF0021502000F03EFFEF215120EF
:1041600000F03AFF0021522000F036FF40F23F11EC
:10417000532000F031FF4FF41C51602000F02CFF61
:104180000121612000F028FF00216A2000F024FFB7
:104190001121902000F020FF4FF4C061922000F028
:1041A0001BFF40F20241932000F016FF02219420F1
:1041B00000F012FF142001F091FC0121072000F013
:1041C0000BFF142001F08AFC6121072000F004FF9E
:1041D00040F27311072000F0FFFE0021202000F0C4
:1041E000FBFE0021212000F0F7FE2221002000F03C
:1041F000F3FE11E3794880884CF2055188427CD166
:104200000021084600F0E8FE0021084600F0E4FE28
:10421000142001F063FC0021084600F0DDFE0021BF
:10422000084600F0D9FE0021084600F0D5FE002126
:10423000084600F0D1FE0121A42000F0CDFE14209C
:1042400001F04CFC4FF41C51602000F0C5FE40F61C
:104250000601082000F0C0FE40F20371302000F09B
:10426000BBFE0121312000F0B7FE0421322000F016
:10427000B3FE4FF48171332000F0AEFE4FF4407175
:10428000342000F0A9FE40F20311352000F0A4FE16
:104290001F21362000F0A0FE40F20371372000F00D
:1042A0009BFE0121382000F097FE0421392000F008
:1042B00093FE1521902000F08FFE4FF482611020B4
:1042C00000F08AFE40F24721112000F085FE4FF4F5
:1042D000DE71122000F080FE4FF46061132000F0C8
:1042E0007BFE782001F0FAFB4FF48071012000F092
:1042F00073FE4FF40071022000E052E000F06CFE0B
:1043000041F23001032000F067FE08210A2000F08E
:1043100063FE00210C2000F05FFE20210E2000F043
:104320005BFE00210F2000F057FE0021202000F04E
:1043300053FE0021212000F04FFE3D212A2000F0F5
:104340004BFE142001F0CAFB2D21292000F044FE71
:104350000021502000F040FE4DF2EF01512000F00E
:104360003BFE0021522000F037FE40F23F11532067
:1043700000F032FE0021612000F02EFE00216A20B4
:1043800000F02AFE4FF44071922000F025FE052136
:10439000932000F021FE4FF48071072000F01CFEF6
:1043A0003AE20E48808844F2315188427ED10121A0
:1043B000002000F011FE0A2001F090FB41F228617C
:1043C000102000F009FE0E21122000F005FE40F63C
:1043D0003921132000F000FE0A2001E04E000020E9
:1043E00001F07CFB4021112000F0F6FD502115204A
:1043F00000F0F2FD0A2001F071FB1E21122000F0F6
:10440000EBFD0A2001F06AFB4FF4B151102000F0DF
:10441000E3FD42F63921132000F0DEFD0A2001F011
:104420005DFB4FF48071012000F0D6FD4FF4407128
:10443000022000F0D1FD41F23801032000F0CCFD54
:1044400040F20221082000F0C7FD08210A2000F0F8
:10445000C3FD0021302000F0BFFD40F202413120B9
:1044600000F0BAFD4FF48371322000F0B5FD40F248
:104470000351332000F0B0FD4FF48271342000F07E
:10448000ABFD40F20131352000F0A6FD40F207718E
:10449000362000F0A1FD40F20531372000F09CFDF0
:1044A0004FF40271382000F097FD00E03EE040F646
:1044B0000B71392000F090FD0221412000F08CFDAD
:1044C0004FF41C51602000F087FD0121612000F0B5
:1044D00083FD4FF40471902000F07EFD4FF4857150
:1044E000922000F079FD0421932000F075FD4FF437
:1044F0008071A02000F070FD0121072000F06CFD0C
:104500002121072000F068FD2321072000F064FD31
:104510003321072000F060FD40F23311072000F046
:104520005BFD0021A02000F057FD75E1C0488088A8
:1045300044F2355188427CD13021152000F04CFDE9
:1045400010219A2000F048FD2021112000F044FDA8
:1045500043F22841102000F03FFD0221122000F01C
:104560003BFD41F23801132000F036FD282001F018
:10457000B5FA1221084600F02FFD282001F0AEFA0E
:1045800043F22041102000F027FD43F238011320B0
:1045900000F022FD462001F0A1FA0021302000F0B9
:1045A0001BFD40F20241312000F016FD40F20731C0
:1045B000322000F011FD4FF44171332000F00CFD6A
:1045C0000421342000F008FD40F20141352000F0C4
:1045D00003FD40F20771362000F0FEFC40F2053189
:1045E000372000F0F9FC4FF4C261382000F0F4FCF1
:1045F0004FF4C261392000F0EFFC4FF480710120CC
:1046000000F0EAFC4FF44071022000F0E5FC41F2BA
:104610003001032000F0E0FC40F60801082000F023
:10462000DBFC08210A2000F0D7FC4FF41C5160206D
:1046300000E033E000F0D0FC0121612000F0CCFC70
:104640004FF49F71902000F0C7FC4FF480719220CE
:1046500000F0C2FC4FF48071932000F0BDFC4FF4D9
:104660004051A02000F0B8FC1021A32000F0B4FCC1
:104670000121072000F0B0FC2121072000F0ACFC54
:104680002321072000F0A8FC3321072000F0A4FC20
:1046900040F23311072000F09FFCBDE064488088A1
:1046A00041F663118842F8D1E22000F07FFC1D2022
:1046B00000F070FC022000F06DFC042000F06AFCA9
:1046C000642001F027FAE02000F070FC012000F0E7
:1046D00061FC0A2001F002FAE02000F067FC0320F0
:1046E00000F058FC0C2001F0F9F9012000F05EFC0C
:1046F0000A2001F0F3F9E62000F058FC2F2000F02A
:1047000049FCFF2000F046FCFF2000F043FCB020F5
:1047100000F04CFC202000F03DFC002000F03AFCB2
:10472000032000F037FC40F21F3000F033FC012082
:1047300000F030FC40F2DF1000F02CFC002000F014
:1047400029FCB42000F032FC042000F023FC40F2ED
:104750001F4000F01FFC002000F01CFC2E2000F089
:1047600019FC002000F016FC002000F013FC0020D3
:1047700000F010FC002000F00DFCB62000F016FC4C
:10478000022000F007FC4FF4037000F003FC00204F
:1047900000F000FC172000F0FDFB152000F0FAFBF4
:1047A000002000F0F7FB002000F0F4FBF02000F008
:1047B000FDFB032000F0EEFB292000F0F7FBD020EA
:1047C00000F0F4FB002000F0E5FBBE2000F0EEFB63
:1047D000052000F0DFFBFE2000F0DCFB012000F0F4
:1047E000D9FB002000F0D6FB002000F0D3FB002016
:1047F00000F0D0FBB82000F0D9FB032000F0CAFB8A
:10480000012000F0C7FBBA2000F0D0FB012000F02F
:10481000C1FB642000F032F80020FCF7B5F901205C
:10482000044908604FF6FF70FCF778F921B000BD2D
:104830004E000020BC82404210B50246012000E03C
:1048400050430B1EA1F10104E1B2F9D110BD0000EB
:1048500008B5034800880090BDF8000008BD0000BE
:104860008000006C10B50446204600F09FFB052038
:1048700001F050F9FFF7ECFF10BD000070B52DED11
:10488000048B0446BE2000F091FB052000F082FB63
:10489000204603F0D0F941EC190B9FED0E0B53ECC1
:1048A000102B03F0DBF941EC180B03F097F985B2FC
:1048B000284600F06FFB012000F06CFBFF2000F0A9
:1048C00069FB002000F066FB002000F063FBBDECFC
:1048D000048B70BD6666666666660440F0B5054684
:1048E00000240027B748807901280BD1B54880887B
:1048F00046F60401884205D0B248808841F663112B
:10490000884208D1AF488079F0B9AE48808841F636
:104910006311884218D1082D15D2DFE805F004068E
:10492000080A0C0E101206250DE007250BE00425E1
:1049300009E0052507E0012505E0002503E0032542
:1049400001E0022500BF00BF9E48808849F2413146
:10495000884217D09B48808846F60401884211D0CF
:104960009848808845F2103188420BD0954880885D
:1049700045F21051884205D09248808841F6631173
:1049800088427DD1082D1CD2DFE805F00406090C11
:104990000F12151800BF14E044F0800411E044F039
:1049A00040040EE044F0C0040BE044F0200408E0B2
:1049B00044F0600405E044F0A00402E044F0E004A8
:1049C00000BF00BF7F48808845F21051884202D165
:1049D0004FF4585700E036277A48808845F2103166
:1049E00088420DD07748808845F21051884207D020
:1049F0007448808841F66311884201D044F008046D
:104A00007048808846F60401884201D144F00204CF
:104A10002146384600F0E0FA6A48808841F6631182
:104A200088421DD004F0200068B1664800886549BE
:104A30004988884214DA63480688408861490880BA
:104A4000084646800CE05F4800885E4949888842F5
:104A500006DD5C48068840885A490880084646803A
:104A60005848808845F21051884254D155494889A8
:104A700000F09CFA002000F08DFA5249498900E0CC
:104A800078E0491C88B200F091FA002000F082FA28
:104A90004C494989891C88B200F088FA494909883B
:104AA000491EC1F30F2000F075FA46494989C91C17
:104AB00088B200F07BFA43490978491EC8B200F079
:104AC00069FA4049888900F071FA002000F062FA22
:104AD0003C498989491C88B200F068FA002000F03E
:104AE00059FA38498989891C88B200F05FFA35493A
:104AF0004988491EC1F30F2000F04CFA31498989D9
:104B0000C91C88B200F052FA2E498978491EC8B2F1
:104B100000F040FA55E02B49488900F047FA0020A0
:104B200000F038FA002000F035FA26490988491EBD
:104B3000C1F30F2000F02EFA22490978491EC8B2AD
:104B400000F028FA1F49888900F030FA002000F0B0
:104B500021FA002000F01EFA1A494988491EC1F3C3
:104B60000F2000F017FA17498978491EC8B200F0E3
:104B700011FA26E0082D1CD2DFE805F004070A0D23
:104B80000F12151844F0300413E044F0100410E044
:104B900044F020040DE000BF0BE044F0380408E0CE
:104BA00044F0280405E044F0180402E044F008044E
:104BB00000BF00BF032744F480542146384600F06C
:104BC0000BFAF0BD4E00002030B504460D46674894
:104BD000808849F24131884205D06448808845F296
:104BE0001031884214D16149488900F0DFF9201260
:104BF00000F0D0F9E0B200F0CDF95C49888900F00E
:104C0000D5F9281200F0C6F9E8B200F0C3F9ABE01C
:104C10005648808846F6040188421DD15348807961
:104C2000012804D151480088401E001B84B24F491E
:104C3000488900F0BBF9201200F0ACF9E0B200F0B6
:104C4000A9F94A49888900F0B1F9281200F0A2F9BF
:104C5000E8B200F09FF987E04448808841F663118C
:104C6000884247D141488079A8B940480088401E11
:104C7000001B84B23D49488900F098F9002000F0FB
:104C800089F9002000F086F9201200F083F9E0B2E3
:104C900000F080F916E03549488900F087F92012C4
:104CA00000F078F9E0B200F075F930490988491E42
:104CB000C1F30F2000F06EF92C490978491EC8B2E3
:104CC00000F068F92949888900F070F9281200F08D
:104CD00061F9E8B200F05EF924494988491EC1F340
:104CE0000F2000F057F921498978491EC8B200F019
:104CF00051F939E01D48808845F21051884220D191
:104D00001A49488900F052F9201200F043F9174976
:104D10004989491C88B200F049F9E0B200F03AF93B
:104D20001249888900F042F9281200F033F90F493E
:104D30008989491C88B200F039F9E8B200F02AF9F3
:104D400012E00A488079012804D108480088401EF2
:104D5000001B84B205494889214600F03DF903490A
:104D60008889294600F038F930BD00004E00002047
:104D70002DE9F84F80460E4617461C46B34620469E
:104D8000E31704EB5373DB1021464FEAE47C04EB9A
:104D90005C7C4FEAEC0CA4EBCC0CBCF1000F02D015
:104DA0004FF0010C01E04FF0000C6344224604EB8D
:104DB000D27C4FEA6C0C03FB0CF3DBB20093A7F13F
:104DC0002000C7B2002556E00C2C07D107EB4700A6
:104DD0002B4901EB800010F8059013E0102C05D151
:104DE000284800EB071010F805900BE0182C07D1AD
:104DF00007EBC700244901EB800010F8059001E0A3
:104E0000BDE8F88F4FF0000A2FE009F0800030B1C4
:104E10001E48028831464046FBF796FF07E00A9895
:104E200028B91B48028831464046FBF78DFF4FEA00
:104E300049604FEA1069701C86B216484088B0423B
:104E400000DCDDE7A6EB0B00A0420AD15E4608F1CC
:104E500001001FFA80F80F480088404500DCCFE7CA
:104E600006E00AF1010000F0FF0ABAF1080FCCDBFE
:104E700000BF681CC5B200988542A5DB00BFBFE734
:104E8000627E0008D6820008C68800080200002062
:104E9000040000204E0000202DE9FF4F81B007469E
:104EA00091461E460E9D4FF0000A002439E0301B4B
:104EB000401EC1B20A20FFF7BFFCB9FBF0F00A2187
:104EC000B0FBF1F201FB1208BAF1000F16D1701E0F
:104ED000A04213DDB8F1000F0ED10020AB4605EB68
:104EE000DB71491001FB0471009088B22B4620222F
:104EF0000299FFF73DFF12E04FF0010A0020AB4698
:104F000005EBDB71491001FB0471009088B208F1D8
:104F10003001CAB22B460299FFF72AFF00BF601C7E
:104F2000C4B2B442C3DB05B0BDE8F08F2DE9F84749
:104F300004460D4690469946DDE9096704F0FF0AEC
:104F400008EB04001FFA80F809EB05001FFA80F94E
:104F500016E0444502DB5446A81985B24D4500DBF6
:104F600014E0002000903A78334629462046FFF7A7
:104F7000FFFE304606EBD07104EB61018CB27F1C62
:104F800038787E2802DC38782028E2DA00BFBDE8D5
:104F9000F887000001B5BDF800000090BDF80000E2
:104FA0000149088008BD00008000006C01B5BDF813
:104FB00000000090BDF800000149088008BD000015
:104FC0007E00006C0248008902490880704700009A
:104FD0004E0000207E00006C034A10804FF0D84243
:104FE000A2F88010704700007E00006C1CB5012103
:104FF000202000F019F94FF4C060009001208DF8D6
:10500000040000208DF8060003208DF80500012023
:105010008DF8070069460448FBF7A3FC4FF4C06114
:105020000148FBF712FD1CBD0014024010B588B00A
:1050300004460121084600F0F7F80121480400F079
:1050400013F92A4800F0D8FB072202212848FBF771
:10505000D0FC072203212648FBF7CBFC0C2005904F
:1050600002208DF818008DF8190000208DF81A0024
:1050700001208DF81B0005A91D48FBF772FC019467
:105080000020ADF80800ADF80A00ADF80C00ADF84E
:1050900010000C20ADF80E0001A9144800F080FCAF
:1050A0000121124800F09BFB012240F225510F48DC
:1050B00000F051FC26208DF81C0002208DF81D0008
:1050C0008DF81E0001208DF81F0007A800F064F87D
:1050D0000848002101608180C0F80610418100204D
:1050E00004498881FD20887108B010BD004400404B
:1050F00000000240400000207CB506460C461546E4
:105100000EB104B10DB901207CBD002000900190CA
:10511000FD208DF8000002E0684600F017F80A480C
:10512000808900F400400028F6D0074840783070AD
:105130000548807820700448C07828700020024913
:10514000888100BFE0E700004000002070B5054600
:1051500000240D482968C0F80610A988418100BFC5
:105160000EE00948801D015D084800F088FC00BF82
:105170004021064800F0B8FB0128F9D1601CC4B2F8
:10518000062CEED370BD000040000020004400401B
:1051900000BFFEE77047000070B5002100230F221A
:1051A000C4781CB3174C246804F4E064C4F5E064CC
:1051B000C4F30721C1F10404E3B20A4144789C40DE
:1051C000E1B28478144021430C07210E0E4C05787F
:1051D0006155047804F01F050124AC4005786D1179
:1051E000AD0005F1E025C5F8004109E0047804F0C0
:1051F0001F050124AC40054D0678761145F8264080
:1052000070BD00000CED00E000E400E080E100E093
:1052100002490143024A1160704700000000FA058C
:105220000CED00E07047000029B1064A1268024305
:10523000044B1A6004E0034A12688243014B1A606F
:10524000704700003038024029B1064A1268024314
:10525000044B1A6004E0034A12688243014B1A604F
:10526000704700003838024029B1064A12680243EC
:10527000044B1A6004E0034A12688243014B1A602F
:10528000704700004038024029B1064A12680243C4
:10529000044B1A6004E0034A12688243014B1A600F
:1052A000704700002038024029B1064A12680243C4
:1052B000044B1A6004E0034A12688243014B1A60EF
:1052C000704700004438024029B1064A1268024380
:1052D000044B1A6004E0034A12688243014B1A60CF
:1052E0007047000024380240F0B50021002200245D
:1052F000022500260223324F3F6807F00C0121B13E
:10530000042905D0082937D105E02E4F076036E083
:105310002D4F076033E02A4F3F1F3F68C7F3805689
:10532000274F3F1F3F6807F03F036EB1264FB7FB83
:10533000F3F7DFF88CC0ACF1040CDCF800C0CCF360
:10534000881C07FB0CF40CE01E4FB7FBF3F7DFF8EB
:1053500070C0ACF1040CDCF800C0CCF3881C07FB77
:105360000CF4174F3F1F3F68C7F301477F1C7D00B8
:10537000B4FBF5F7076002E0124F076000BF00BF03
:105380000F4F3F6807F0F0010909104F7A5C07687A
:10539000D74047600A4F3F6807F4E051890A0B4F36
:1053A0007A5C4768D7408760054F3F6807F46041E3
:1053B000490B064F7A5C4768D740C760F0BD0000D4
:1053C000083802400024F40000127A001200002085
:1053D000704700000CB50020019000903448006830
:1053E00040F480303249086000BF3148006800F462
:1053F000003000900198401C0190009818B9019865
:10540000B0F5A04FF1D12A48006800F4003010B187
:105410000120009001E0002000900098012846D172
:1054200023484030006840F08050214940310860F6
:105430002048006840F440401E4908601C4808307D
:1054400000681B49083108600846006840F40040C5
:1054500008600846006840F4A05008601648091F1C
:105460000860081F006840F08070091F086000BFD6
:105470000F48006800F000700028F9D040F2057075
:105480000E4908600A480830006820F00300084907
:10549000083108600846006840F00200086000BF5C
:1054A00003480830006800F00C000828F8D10CBD53
:1054B000003802400070004008544007003C0240A1
:1054C000042808D14FF0E021096941F004014FF0B0
:1054D000E022116107E04FF0E021096921F00401A9
:1054E0004FF0E022116170477047000010B5154879
:1054F000006840F47000134908601348006840F0E9
:1055000001001149086000200F49083108600E4869
:1055100000680E4908400C4908600D48091D0860E4
:10552000081F006820F48020091F08600020064939
:105530000C310860FFF74EFF4FF0006001498039E1
:10554000086010BD88ED00E000380240FFFFF6FE65
:105550001030002410B50121054800F048F801285A
:1055600005D10121024800F033F801F0A3FC10BD81
:10557000000400407FB505460C4601210220FFF7DC
:1055800073FE0295ADF804400020ADF80600ADF8BA
:105590000C0001A90D4800F045F8012211460B4806
:1055A00000F036F80121094800F015F81D208DF8AB
:1055B000000001208DF8010003208DF80200012079
:1055C0008DF803006846FFF7E7FD7FBD000400404B
:1055D000CA430282704721B1028842F00102028070
:1055E00004E002884FF6FE731A400280704730B51F
:1055F0000246002000230024158A05EA010395894C
:1056000005EA010413B10CB1012000E0002030BD17
:105610001AB183890B43838102E083898B438381A1
:105620007047000000220288184B98420ED0184B99
:1056300098420BD0B0F1804F08D0164B984205D05D
:10564000154B984202D0154B984204D14FF68F73F8
:105650001A404B881A43124B984207D0114B98427C
:1056600004D04FF6FF431A400B891A4302804B685F
:10567000C3620B880385054B984202D0044B9842C5
:1056800001D18B7A03860123838270470000014099
:10569000000401400004004000080040000C0040ED
:1056A000001000400014004010B540F225511D4884
:1056B00000F027F910B31B4800F0DCF9C4B21A4817
:1056C000008800F40040C8B91748008800F4804002
:1056D00060B10A2C03D000201349088020E0124852
:1056E000008840F400401049088019E00D2C06D1D4
:1056F0000D48008840F480400B49088010E00A48BB
:105700000088C0F30D0009490C5407480088401C6C
:105710000549088008460088C72801DD0020088068
:1057200010BD000000100140100000205C000020AF
:1057300010B540F22551194800F0E3F860B317485E
:1057400000F098F9C4B216488079A04205D11448F7
:10575000808940F48040124988811148808900F492
:105760008040C8B10E48808900F40040A0B90C48C0
:105770008089C0F30D000A490C5408468089401CFA
:10578000888108468089C0F30D00062804D10846A8
:10579000808940F40040888110BD00000044004032
:1057A0004000002008B540F22551074800F0A9F854
:1057B00040B1054800F05EF9C0B200900121684692
:1057C00001F0D2FA08BD00000048004001F4007268
:1057D000B2F5007F00D100BFCA430280704721B1FB
:1057E000828942F40052828104E082894DF6FF737F
:1057F0001A4082817047000010B504463248844246
:1058000008D101211020FFF75FFD00211020FFF7D4
:105810005BFD57E02D48844209D101214804FFF780
:1058200033FD00214FF40030FFF72EFD4AE02848F9
:10583000844209D101218804FFF726FD00214FF49D
:105840008020FFF721FD3DE02248844209D101215B
:10585000C804FFF719FD00214FF40020FFF714FDE5
:1058600030E01D48844209D101210805FFF70CFDF5
:1058700000214FF48010FFF707FD23E01748844212
:1058800008D101212020FFF71FFD00212020FFF774
:105890001BFD17E01248844209D101218807FFF758
:1058A000F3FC00214FF08040FFF7EEFC0AE00D48CA
:1058B000844207D101214005FFF7E6FC0021600585
:1058C000FFF7E2FC10BD0000001001400044004062
:1058D00000480040004C00400050004000140140CF
:1058E00000780040007C004002460020B1F5007FB7
:1058F00000D100BF13880B400BB1012000E0002055
:10590000704770B50246002400230025002040F6B1
:105910006A16B14200D100BFC1F3421501F01F0366
:10592000012606FA03F3012D02D19689334006E0E1
:10593000022D02D1168A334001E0968A33400C12C0
:10594000012606FA04F41688344013B10CB1012084
:1059500000E0002070BDF0B50346002400260025BD
:10596000002040F66A17B94200D100BF1846C1F3C3
:10597000421401F01F06012707FA06F5012C01D198
:105980000C3004E0022C01D1103000E014301AB1C8
:1059900007682F43076002E00768AF430760F0BD68
:1059A0002DE9FF4705460E460024A14600BFA0464C
:1059B000B08900B100BF2C8A24F44054F08804431D
:1059C0002C82AC8941F20C608443B0883189084351
:1059D000718908430443AC81AC8A24F44074B089D3
:1059E0000443AC826846FFF77FFC2048854202D022
:1059F0001F48854202D1DDF80C9001E0DDF80890E7
:105A0000A88900F4004040B109EBC90000EB09107F
:105A100031684900B0FBF1F707E009EBC90000EB82
:105A2000091031688900B0FBF1F76420B7FBF0F092
:105A300004012009642101FB1078A88900F40040CA
:105A400040B1322000EBC800B0FBF1F000F00700DD
:105A5000044308E0322000EB08106421B0FBF1F0B1
:105A600000F00F0004432C81BDE8FF8700100140C7
:105A70000014014001468888C0F308007047C1F354
:105A800008028280704700BFFEE730380A2801D242
:105A90000120704700207047014600BF704700009A
:105AA00010B504466FF00400FFF70AFDE11704EBA0
:105AB0005171C1F3C701074A11701046007800EB1D
:105AC0004001C1EBC0104FF6FF7101EAC00002496E
:105AD000088010BD060000200800002070B50446B4
